{
  "contractName": "Campanha",
  "abi": [
    {
      "inputs": [
        {
          "internalType": "string",
          "name": "_tittle",
          "type": "string"
        },
        {
          "internalType": "string",
          "name": "_description",
          "type": "string"
        },
        {
          "internalType": "uint256",
          "name": "_goal",
          "type": "uint256"
        }
      ],
      "stateMutability": "nonpayable",
      "type": "constructor"
    },
    {
      "anonymous": false,
      "inputs": [
        {
          "indexed": true,
          "internalType": "address",
          "name": "donor",
          "type": "address"
        },
        {
          "indexed": false,
          "internalType": "uint256",
          "name": "amount",
          "type": "uint256"
        },
        {
          "indexed": false,
          "internalType": "uint256",
          "name": "timestamp",
          "type": "uint256"
        }
      ],
      "name": "DonationReceived",
      "type": "event"
    },
    {
      "anonymous": false,
      "inputs": [
        {
          "indexed": false,
          "internalType": "uint256",
          "name": "amount",
          "type": "uint256"
        }
      ],
      "name": "withdrawTransfered",
      "type": "event"
    },
    {
      "inputs": [],
      "name": "active",
      "outputs": [
        {
          "internalType": "bool",
          "name": "",
          "type": "bool"
        }
      ],
      "stateMutability": "view",
      "type": "function"
    },
    {
      "inputs": [],
      "name": "campanhaAddress",
      "outputs": [
        {
          "internalType": "address",
          "name": "",
          "type": "address"
        }
      ],
      "stateMutability": "view",
      "type": "function"
    },
    {
      "inputs": [],
      "name": "currentBalance",
      "outputs": [
        {
          "internalType": "uint256",
          "name": "",
          "type": "uint256"
        }
      ],
      "stateMutability": "view",
      "type": "function"
    },
    {
      "inputs": [],
      "name": "description",
      "outputs": [
        {
          "internalType": "string",
          "name": "",
          "type": "string"
        }
      ],
      "stateMutability": "view",
      "type": "function"
    },
    {
      "inputs": [
        {
          "internalType": "uint256",
          "name": "",
          "type": "uint256"
        }
      ],
      "name": "donationList",
      "outputs": [
        {
          "internalType": "address",
          "name": "donor",
          "type": "address"
        },
        {
          "internalType": "uint256",
          "name": "amount",
          "type": "uint256"
        },
        {
          "internalType": "uint256",
          "name": "timestamp",
          "type": "uint256"
        }
      ],
      "stateMutability": "view",
      "type": "function"
    },
    {
      "inputs": [],
      "name": "goal",
      "outputs": [
        {
          "internalType": "uint256",
          "name": "",
          "type": "uint256"
        }
      ],
      "stateMutability": "view",
      "type": "function"
    },
    {
      "inputs": [],
      "name": "image",
      "outputs": [
        {
          "internalType": "string",
          "name": "",
          "type": "string"
        }
      ],
      "stateMutability": "view",
      "type": "function"
    },
    {
      "inputs": [],
      "name": "numApoiadores",
      "outputs": [
        {
          "internalType": "uint256",
          "name": "",
          "type": "uint256"
        }
      ],
      "stateMutability": "view",
      "type": "function"
    },
    {
      "inputs": [],
      "name": "ownerAddress",
      "outputs": [
        {
          "internalType": "address",
          "name": "",
          "type": "address"
        }
      ],
      "stateMutability": "view",
      "type": "function"
    },
    {
      "inputs": [],
      "name": "timestamp",
      "outputs": [
        {
          "internalType": "uint256",
          "name": "",
          "type": "uint256"
        }
      ],
      "stateMutability": "view",
      "type": "function"
    },
    {
      "inputs": [],
      "name": "tittle",
      "outputs": [
        {
          "internalType": "string",
          "name": "",
          "type": "string"
        }
      ],
      "stateMutability": "view",
      "type": "function"
    },
    {
      "inputs": [],
      "name": "totalBalance",
      "outputs": [
        {
          "internalType": "uint256",
          "name": "",
          "type": "uint256"
        }
      ],
      "stateMutability": "view",
      "type": "function"
    },
    {
      "inputs": [],
      "name": "deposit",
      "outputs": [
        {
          "internalType": "address",
          "name": "",
          "type": "address"
        }
      ],
      "stateMutability": "payable",
      "type": "function"
    },
    {
      "inputs": [],
      "name": "balance",
      "outputs": [
        {
          "internalType": "uint256",
          "name": "",
          "type": "uint256"
        }
      ],
      "stateMutability": "view",
      "type": "function"
    },
    {
      "inputs": [
        {
          "internalType": "uint256",
          "name": "_amount",
          "type": "uint256"
        },
        {
          "internalType": "address payable",
          "name": "_address",
          "type": "address"
        }
      ],
      "name": "withdrawTransfer",
      "outputs": [],
      "stateMutability": "payable",
      "type": "function"
    },
    {
      "inputs": [],
      "name": "getDonations",
      "outputs": [
        {
          "components": [
            {
              "internalType": "address",
              "name": "donor",
              "type": "address"
            },
            {
              "internalType": "uint256",
              "name": "amount",
              "type": "uint256"
            },
            {
              "internalType": "uint256",
              "name": "timestamp",
              "type": "uint256"
            }
          ],
          "internalType": "struct Campanha.Donation[]",
          "name": "",
          "type": "tuple[]"
        }
      ],
      "stateMutability": "view",
      "type": "function"
    },
    {
      "inputs": [
        {
          "internalType": "string",
          "name": "_tittle",
          "type": "string"
        },
        {
          "internalType": "string",
          "name": "_description",
          "type": "string"
        },
        {
          "internalType": "uint256",
          "name": "_goal",
          "type": "uint256"
        },
        {
          "internalType": "bool",
          "name": "_active",
          "type": "bool"
        }
      ],
      "name": "updateCampanha",
      "outputs": [],
      "stateMutability": "nonpayable",
      "type": "function"
    }
  ],
  "bytecode": "0x60806040523480156200001157600080fd5b5060405162001a5d38038062001a5d8339818101604052810190620000379190620003bc565b32600160006101000a81548173ffffffffffffffffffffffffffffffffffffffff021916908373ffffffffffffffffffffffffffffffffffffffff16021790555082600290805190602001906200009092919062000134565b508160039080519060200190620000a992919062000134565b5080600781905550600060058190555060006006819055506000600981905550426008819055506001600a60006101000a81548160ff021916908315150217905550306000806101000a81548173ffffffffffffffffffffffffffffffffffffffff021916908373ffffffffffffffffffffffffffffffffffffffff160217905550505050620004ba565b828054620001429062000485565b90600052602060002090601f016020900481019282620001665760008555620001b2565b82601f106200018157805160ff1916838001178555620001b2565b82800160010185558215620001b2579182015b82811115620001b157825182559160200191906001019062000194565b5b509050620001c19190620001c5565b5090565b5b80821115620001e0576000816000905550600101620001c6565b5090565b6000604051905090565b600080fd5b600080fd5b600080fd5b600080fd5b6000601f19601f8301169050919050565b7f4e487b7100000000000000000000000000000000000000000000000000000000600052604160045260246000fd5b6200024d8262000202565b810181811067ffffffffffffffff821117156200026f576200026e62000213565b5b80604052505050565b600062000284620001e4565b905062000292828262000242565b919050565b600067ffffffffffffffff821115620002b557620002b462000213565b5b620002c08262000202565b9050602081019050919050565b60005b83811015620002ed578082015181840152602081019050620002d0565b83811115620002fd576000848401525b50505050565b60006200031a620003148462000297565b62000278565b905082815260208101848484011115620003395762000338620001fd565b5b62000346848285620002cd565b509392505050565b600082601f830112620003665762000365620001f8565b5b81516200037884826020860162000303565b91505092915050565b6000819050919050565b620003968162000381565b8114620003a257600080fd5b50565b600081519050620003b6816200038b565b92915050565b600080600060608486031215620003d857620003d7620001ee565b5b600084015167ffffffffffffffff811115620003f957620003f8620001f3565b5b62000407868287016200034e565b935050602084015167ffffffffffffffff8111156200042b576200042a620001f3565b5b62000439868287016200034e565b92505060406200044c86828701620003a5565b9150509250925092565b7f4e487b7100000000000000000000000000000000000000000000000000000000600052602260045260246000fd5b600060028204905060018216806200049e57607f821691505b602082108103620004b457620004b362000456565b5b50919050565b61159380620004ca6000396000f3fe6080604052600436106100fe5760003560e01c8063ad7a672f11610095578063d0e30db011610064578063d0e30db014610319578063d142a72914610337578063db0b745714610362578063e25f84161461037e578063f3ccaac0146103a9576100fe565b8063ad7a672f1461026d578063b69ef8a814610298578063b80777ea146102c3578063ce845d1d146102ee576100fe565b80638228b104116100d15780638228b104146101c35780638f04f000146101ee5780638f84aa0914610219578063a8eceb8214610244576100fe565b80630238cbdc1461010357806302fb0c5e14610142578063401938831461016d5780637284e41614610198575b600080fd5b34801561010f57600080fd5b5061012a60048036038101906101259190610c01565b6103d4565b60405161013993929190610c7e565b60405180910390f35b34801561014e57600080fd5b5061015761042e565b6040516101649190610cd0565b60405180910390f35b34801561017957600080fd5b50610182610441565b60405161018f9190610ceb565b60405180910390f35b3480156101a457600080fd5b506101ad610447565b6040516101ba9190610d9f565b60405180910390f35b3480156101cf57600080fd5b506101d86104d5565b6040516101e59190610d9f565b60405180910390f35b3480156101fa57600080fd5b50610203610563565b6040516102109190610dc1565b60405180910390f35b34801561022557600080fd5b5061022e610587565b60405161023b9190610dc1565b60405180910390f35b34801561025057600080fd5b5061026b60048036038101906102669190610f3d565b6105ad565b005b34801561027957600080fd5b50610282610692565b60405161028f9190610ceb565b60405180910390f35b3480156102a457600080fd5b506102ad610698565b6040516102ba9190610ceb565b60405180910390f35b3480156102cf57600080fd5b506102d86106a0565b6040516102e59190610ceb565b60405180910390f35b3480156102fa57600080fd5b506103036106a6565b6040516103109190610ceb565b60405180910390f35b6103216106ac565b60405161032e9190610dc1565b60405180910390f35b34801561034357600080fd5b5061034c610849565b6040516103599190610ceb565b60405180910390f35b61037c6004803603810190610377919061101a565b61084f565b005b34801561038a57600080fd5b506103936109bd565b6040516103a09190611169565b60405180910390f35b3480156103b557600080fd5b506103be610a86565b6040516103cb9190610d9f565b60405180910390f35b600b81815481106103e457600080fd5b90600052602060002090600302016000915090508060000160009054906101000a900473ffffffffffffffffffffffffffffffffffffffff16908060010154908060020154905083565b600a60009054906101000a900460ff1681565b60075481565b60038054610454906111ba565b80601f0160208091040260200160405190810160405280929190818152602001828054610480906111ba565b80156104cd5780601f106104a2576101008083540402835291602001916104cd565b820191906000526020600020905b8154815290600101906020018083116104b057829003601f168201915b505050505081565b600280546104e2906111ba565b80601f016020809104026020016040519081016040528092919081815260200182805461050e906111ba565b801561055b5780601f106105305761010080835404028352916020019161055b565b820191906000526020600020905b81548152906001019060200180831161053e57829003601f168201915b505050505081565b60008054906101000a900473ffffffffffffffffffffffffffffffffffffffff1681565b600160009054906101000a900473ffffffffffffffffffffffffffffffffffffffff1681565b600160009054906101000a900473ffffffffffffffffffffffffffffffffffffffff1673ffffffffffffffffffffffffffffffffffffffff163273ffffffffffffffffffffffffffffffffffffffff161461063d576040517f08c379a00000000000000000000000000000000000000000000000000000000081526004016106349061125d565b60405180910390fd5b8360029080519060200190610653929190610b14565b50826003908051906020019061066a929190610b14565b508160078190555080600a60006101000a81548160ff02191690831515021790555050505050565b60065481565b600047905090565b60085481565b60055481565b60008034116106f0576040517f08c379a00000000000000000000000000000000000000000000000000000000081526004016106e7906112ef565b60405180910390fd5b3460066000828254610702919061133e565b92505081905550346005600082825461071b919061133e565b925050819055506009600081548092919061073590611394565b9190505550600b60405180606001604052803273ffffffffffffffffffffffffffffffffffffffff16815260200134815260200142815250908060018154018082558091505060019003906000526020600020906003020160009091909190915060008201518160000160006101000a81548173ffffffffffffffffffffffffffffffffffffffff021916908373ffffffffffffffffffffffffffffffffffffffff160217905550602082015181600101556040820151816002015550503373ffffffffffffffffffffffffffffffffffffffff167f4b0304ab2f313234b1cea012339c8f8c3bf2c8bb357d81a579cfdb35d2e3d030344260405161083b9291906113dc565b60405180910390a233905090565b60095481565b600160009054906101000a900473ffffffffffffffffffffffffffffffffffffffff1673ffffffffffffffffffffffffffffffffffffffff163273ffffffffffffffffffffffffffffffffffffffff16146108df576040517f08c379a00000000000000000000000000000000000000000000000000000000081526004016108d690611477565b60405180910390fd5b81471015610922576040517f08c379a000000000000000000000000000000000000000000000000000000000815260040161091990611509565b60405180910390fd5b8073ffffffffffffffffffffffffffffffffffffffff166108fc839081150290604051600060405180830381858888f19350505050158015610968573d6000803e3d6000fd5b50816005600082825461097b9190611529565b925050819055507f35b54b96b242b8aabddbd3ba8862f20c4bc472650fc956d8a7a22146f43461bf826040516109b19190610ceb565b60405180910390a15050565b6060600b805480602002602001604051908101604052809291908181526020016000905b82821015610a7d57838290600052602060002090600302016040518060600160405290816000820160009054906101000a900473ffffffffffffffffffffffffffffffffffffffff1673ffffffffffffffffffffffffffffffffffffffff1673ffffffffffffffffffffffffffffffffffffffff16815260200160018201548152602001600282015481525050815260200190600101906109e1565b50505050905090565b60048054610a93906111ba565b80601f0160208091040260200160405190810160405280929190818152602001828054610abf906111ba565b8015610b0c5780601f10610ae157610100808354040283529160200191610b0c565b820191906000526020600020905b815481529060010190602001808311610aef57829003601f168201915b505050505081565b828054610b20906111ba565b90600052602060002090601f016020900481019282610b425760008555610b89565b82601f10610b5b57805160ff1916838001178555610b89565b82800160010185558215610b89579182015b82811115610b88578251825591602001919060010190610b6d565b5b509050610b969190610b9a565b5090565b5b80821115610bb3576000816000905550600101610b9b565b5090565b6000604051905090565b600080fd5b600080fd5b6000819050919050565b610bde81610bcb565b8114610be957600080fd5b50565b600081359050610bfb81610bd5565b92915050565b600060208284031215610c1757610c16610bc1565b5b6000610c2584828501610bec565b91505092915050565b600073ffffffffffffffffffffffffffffffffffffffff82169050919050565b6000610c5982610c2e565b9050919050565b610c6981610c4e565b82525050565b610c7881610bcb565b82525050565b6000606082019050610c936000830186610c60565b610ca06020830185610c6f565b610cad6040830184610c6f565b949350505050565b60008115159050919050565b610cca81610cb5565b82525050565b6000602082019050610ce56000830184610cc1565b92915050565b6000602082019050610d006000830184610c6f565b92915050565b600081519050919050565b600082825260208201905092915050565b60005b83811015610d40578082015181840152602081019050610d25565b83811115610d4f576000848401525b50505050565b6000601f19601f8301169050919050565b6000610d7182610d06565b610d7b8185610d11565b9350610d8b818560208601610d22565b610d9481610d55565b840191505092915050565b60006020820190508181036000830152610db98184610d66565b905092915050565b6000602082019050610dd66000830184610c60565b92915050565b600080fd5b600080fd5b7f4e487b7100000000000000000000000000000000000000000000000000000000600052604160045260246000fd5b610e1e82610d55565b810181811067ffffffffffffffff82111715610e3d57610e3c610de6565b5b80604052505050565b6000610e50610bb7565b9050610e5c8282610e15565b919050565b600067ffffffffffffffff821115610e7c57610e7b610de6565b5b610e8582610d55565b9050602081019050919050565b82818337600083830152505050565b6000610eb4610eaf84610e61565b610e46565b905082815260208101848484011115610ed057610ecf610de1565b5b610edb848285610e92565b509392505050565b600082601f830112610ef857610ef7610ddc565b5b8135610f08848260208601610ea1565b91505092915050565b610f1a81610cb5565b8114610f2557600080fd5b50565b600081359050610f3781610f11565b92915050565b60008060008060808587031215610f5757610f56610bc1565b5b600085013567ffffffffffffffff811115610f7557610f74610bc6565b5b610f8187828801610ee3565b945050602085013567ffffffffffffffff811115610fa257610fa1610bc6565b5b610fae87828801610ee3565b9350506040610fbf87828801610bec565b9250506060610fd087828801610f28565b91505092959194509250565b6000610fe782610c2e565b9050919050565b610ff781610fdc565b811461100257600080fd5b50565b60008135905061101481610fee565b92915050565b6000806040838503121561103157611030610bc1565b5b600061103f85828601610bec565b925050602061105085828601611005565b9150509250929050565b600081519050919050565b600082825260208201905092915050565b6000819050602082019050919050565b61108f81610c4e565b82525050565b61109e81610bcb565b82525050565b6060820160008201516110ba6000850182611086565b5060208201516110cd6020850182611095565b5060408201516110e06040850182611095565b50505050565b60006110f283836110a4565b60608301905092915050565b6000602082019050919050565b60006111168261105a565b6111208185611065565b935061112b83611076565b8060005b8381101561115c57815161114388826110e6565b975061114e836110fe565b92505060018101905061112f565b5085935050505092915050565b60006020820190508181036000830152611183818461110b565b905092915050565b7f4e487b7100000000000000000000000000000000000000000000000000000000600052602260045260246000fd5b600060028204905060018216806111d257607f821691505b6020821081036111e5576111e461118b565b5b50919050565b7f536f6d656e7465206f20646f6e6f2064612063616d70616e686120706f64652060008201527f616c7465726172206f73206461646f7320646f20636f6e747261746f21000000602082015250565b6000611247603d83610d11565b9150611252826111eb565b604082019050919050565b600060208201905081810360008301526112768161123a565b9050919050565b7f4f2076616c6f7220646f61646f206465766520736572206d61696f722071756560008201527f207a65726f210000000000000000000000000000000000000000000000000000602082015250565b60006112d9602683610d11565b91506112e48261127d565b604082019050919050565b60006020820190508181036000830152611308816112cc565b9050919050565b7f4e487b7100000000000000000000000000000000000000000000000000000000600052601160045260246000fd5b600061134982610bcb565b915061135483610bcb565b9250827fffffffffffffffffffffffffffffffffffffffffffffffffffffffffffffffff038211156113895761138861130f565b5b828201905092915050565b600061139f82610bcb565b91507fffffffffffffffffffffffffffffffffffffffffffffffffffffffffffffffff82036113d1576113d061130f565b5b600182019050919050565b60006040820190506113f16000830185610c6f565b6113fe6020830184610c6f565b9392505050565b7f536f6d656e7465206f20646f6e6f2064612063616d70616e686120706f64652060008201527f7361636172206f732066756e646f732100000000000000000000000000000000602082015250565b6000611461603083610d11565b915061146c82611405565b604082019050919050565b6000602082019050818103600083015261149081611454565b9050919050565b7f53616c646f20696e737566696369656e74652070617261207265616c697a617260008201527f2061206f7065726163616f210000000000000000000000000000000000000000602082015250565b60006114f3602c83610d11565b91506114fe82611497565b604082019050919050565b60006020820190508181036000830152611522816114e6565b9050919050565b600061153482610bcb565b915061153f83610bcb565b9250828210156115525761155161130f565b5b82820390509291505056fea264697066735822122096477f000e3fb06cbe2dc493fe6cc5b854ecd3aecde569ba2812ebbb0c5406bf64736f6c634300080d0033",
  "immutableReferences": {},
  "source": "// SPDX-License-Identifier: GPL-3.0\r\npragma solidity ^0.8.13;\r\n\r\n contract Campanha {\r\n\r\n    address public campanhaAddress; // Endereo da campanha\r\n    address public ownerAddress;    // Endereo da conta que criou a campanha\r\n    string public tittle;           // Ttulo da campanha\r\n    string public description;      // Descrio da campanha\r\n    string public image;            // Imagem da campanha\r\n    uint public currentBalance;     // Valor atual disponvel para saque\r\n    uint public totalBalance;       // Valor total j arrecadado\r\n    uint public goal;               // Valor objetivo a ser arrecadado\r\n    uint public timestamp;          // Horrio da criao da campanha\r\n    uint public numApoiadores;      // Numero de apoios j recebidos\r\n    bool public active;             // Status da campanha [true=Ativa;false=Inativa]\r\n    \r\n    //Estrutura para ter o controle sobre as doaes\r\n    struct Donation {\r\n        address donor;  // Endereo do doador\r\n        uint256 amount; // Valor doado\r\n        uint timestamp; // Horrio da doao\r\n    }\r\n\r\n    // Lista de todas as doaes feitas\r\n    Donation[] public donationList;\r\n\r\n    // Eventos\r\n    event DonationReceived(address indexed donor, uint256 amount, uint timestamp); // Doao recebida\r\n    event withdrawTransfered(uint256 amount);                      // Saque realizado\r\n\r\n    //Construtor\r\n    constructor(string memory _tittle, string memory _description, uint _goal) {\r\n        ownerAddress = tx.origin;\r\n        tittle =_tittle;\r\n        description = _description;\r\n        goal = _goal;\r\n        currentBalance = 0;\r\n        totalBalance = 0;\r\n        numApoiadores = 0;\r\n        timestamp = block.timestamp;\r\n        active = true;\r\n       campanhaAddress = address(this);\r\n    }\r\n\r\n    //Funo que realiza o depsito\r\n    function deposit() external payable returns (address){\r\n        //Verifica se o valor doado  igual a zero\r\n        require(msg.value > 0, \"O valor doado deve ser maior que zero!\");\r\n        //Somando valor doado\r\n        totalBalance += msg.value;\r\n        //Somando valor disponvel para saque\r\n        currentBalance += msg.value;\r\n        //Incrementando numero de doadores\r\n        numApoiadores++;\r\n        // Adicionar a doao  lista\r\n        donationList.push(Donation({\r\n            donor: tx.origin,\r\n            amount: msg.value,\r\n            timestamp: block.timestamp\r\n        }));\r\n        //Emitindo evento\r\n        emit DonationReceived(msg.sender, msg.value, block.timestamp);\r\n        return msg.sender;\r\n    }\r\n\r\n    // Funo que retorna \r\n    function balance() external view returns(uint256){\r\n        return address(this).balance;\r\n    }\r\n\r\n    // Funo que realiza o saque\r\n    function withdrawTransfer(uint256 _amount, address payable _address) external payable{\r\n        // Verifica se o dono do contrato  quem est tentando realizar a operao\r\n        require(tx.origin == ownerAddress, \"Somente o dono da campanha pode sacar os fundos!\");\r\n        // Verifica se existe saldo o suficiente para realizar a operao\r\n        require(address(this).balance >= _amount, \"Saldo insuficiente para realizar a operacao!\");\r\n        // Realiza a transferencia\r\n        _address.transfer(_amount);\r\n        // Decrementa o saldo atual\r\n        currentBalance -= _amount;\r\n        // Emite o evento\r\n        emit withdrawTransfered(_amount);\r\n    }\r\n\r\n    // Funo que retorna a lista de doaes\r\n    function getDonations() external view returns (Donation[] memory) {\r\n        return donationList;\r\n    }\r\n\r\n    // Funo que atualiza os dados da campanha \r\n    function updateCampanha(string memory _tittle, string memory _description, uint _goal, bool _active) external {\r\n        // Verifica se o dono do contrato  quem est tentando realizar a operao\r\n        require(tx.origin == ownerAddress, \"Somente o dono da campanha pode alterar os dados do contrato!\");\r\n        tittle =_tittle;\r\n        description = _description;\r\n        goal = _goal;\r\n        active = _active;\r\n    }\r\n\r\n}",
  "sourcePath": "C:\\Users\\Rogus Staub\\Documents\\TCC\\projeto\\smart-raise\\contracts\\Campanha.sol",
  "compiler": {
    "name": "solc",
    "version": "0.8.13+commit.abaa5c0e.Emscripten.clang"
  },
  "schemaVersion": "3.4.16",
  "updatedAt": "2024-12-06T17:17:44.317Z",
  "devdoc": {
    "kind": "dev",
    "methods": {},
    "version": 1
  },
  "userdoc": {
    "kind": "user",
    "methods": {},
    "version": 1
  }
}